:100356000B0920202020202043484152000C1E205B
:1003660020202020204449474954000A1400000058
:0A0376000000000000000001080074
:0B01A2007B007A00791485082F7D0A8D
:0801AD008B2B8A2C892D8D2E6D
:1001B500AF8B7E0012030BE52F704CF530E530C395
:1001C500952E506D1202C97C007D021201178D2FEC
:1001D500E52F14601204702B1202C97C007D1A12DF
:1001E5000117ED2441800D1202C97C007D1A120110
:1001F50017ED2461AB2BAA2CA92D853082758300C0
:100205001200F5053080B6E4F530E530C3952E5083
:10021500201202C97C007D0A120117ED2430AB2B98
:10022500AA2CA92D8530827583001200F505308032
:07023500D9AB2BAA2CA92D67
:01023C00229F
:100003001203A81203DAE4F52AC3E52A940B7480D9
:100013009480500E7409252AF8E6FF120409052A74
:1000230080E7120381EF24FE70030200C70470F21D
:100033006308FFE50870457F801203FFE4F52AC3D8
:10004300E52A940B74809480500E7409252AF8E6EF
:10005300FF120409052A80E71201A27FC01203FFE1
:10006300E4F52AC3E52A940A7480948050B4741486
:10007300252AF8E6FF120409052A80E77F80120388
:10008300FFE4F52AC3E52A940C74809480500E741F
:100093001E252AF8E6FF120409052A80E71201A2A9
:1000A3007FC01203FFE4F52AC3E52A940A748094FF
:1000B3008040030200257414252AF8E6FF12040980
:1000C300052A80E4E51470030200257B007A007999
:0900D300147D0A1203C10200258C
:10031600C2A58F807F017E00120327D2A77F057EAC
:0103260000D6
:10032700D3EF9400EE940040257DC7EDD39400747D
:1003370080948040127C01ECD394007480948040B8
:0E034700031C80F31D80E4EF1F70D51E80D2D2
:010355002285
:0A03FF00C2A7C2A6120316C2A7226D
:0A040900C2A7D2A6120316C2A72252
:1003A8007F381203FF7F0C1203FF7F061203FF7FC3
:0903B800011203FF7F800203FF24
:1003DA00759850758920758780758DF3758BF3C272
:0603EA00ACD2AFD28E225E
:080413008F993099FDC2992276
:1003C100E4FEEEC39D50111200DCFF120413740110
:0803D10029F9E43AFA0E80EA72
:0103D9002201
:0403F0007F647E00A8
:0B03F400EF1FAC0670011E4C70F622DB
:1003810020970F1203F02097091203F03097FD7F99
:10039100012220960F1203F02096091203F03096E5
:0703A100FD7F02227F002214
:0300000002023DBC
:0C023D00787FE4F6D8FD7581340202845D
:1000DC00BB010689828A83E0225002E722BBFE0222
:0900EC00E32289828A83E4932255
:1000F500F8BB010DE58229F582E5833AF583E8F041
:10010500225006E92582C8F622BBFE05E92582C8EC
:02011500F222D4
:10011700C2D5EC30E709B2D5E4C39DFDE49CFCEE03
:1001270030E715B2D5E4C39FFFE49EFE12014DC32D
:10013700E49DFDE49CFC800312014D30D507C3E428
:060147009FFFE49EFE2272
:1002C900AC31AD32AE33AF347810EC4D4E4F7004D3
:1002D9007CA57DA5C3EC13FCED13FDEE13FEEF1316
:1002E900FF5010EC64CCFCED644CFDEE644EFEEF67
:1002F90064CEFFD8DF8C318D328E338F34EE547F4C
:0D030900FE228E318F3274A5F533F53422BB
:10024900020003E493A3F8E493A34003F68001F2C8
:1002590008DFF48029E493A3F85407240CC8C333B6
:10026900C4540F4420C8834004F456800146F6DF85
:10027900E4800B0102040810204080900356E47EBC
:10028900019360BCA3FF543F30E509541FFEE4937A
:10029900A360010ECF54C025E060A840B8E493A341
:1002A900FAE493A3F8E493A3C8C582C8CAC583CA6C
:1002B900F0A3C8C582C8CAC583CADFE9DEE780BE24
:01038000007C
:10014D00BC000BBE0029EF8DF084FFADF022E4CC96
:10015D00F875F008EF2FFFEE33FEEC33FCEE9DEC5F
:10016D00984005FCEE9DFE0FD5F0E9E4CEFD22EDA5
:10017D00F8F5F0EE8420D21CFEADF075F008EF2FEF
:10018D00FFED33FD4007985006D5F0F222C398FDE0
:05019D000FD5F0EA227D
:00000001FF
