:040451007F647E0046
:0B045500EF1FAC0670011E4C70F62279
:1004020020A00F12045120A00912045130A0FD7F38
:10041200012220A10F12045120A10912045130A17E
:10042200FD7F022220A20F12045120A209120451C0
:0904320030A2FD7F03227F0022AD
:1003C200C2A58F807F017E001203D3D2A77F057E54
:0103D200002A
:1003D300D3EF9400EE940040257DC7EDD3940074D1
:1003E30080948040127C01ECD3940074809480400C
:0E03F300031C80F31D80E4EF1F70D51E80D226
:0104010022D8
:0A046000C2A7C2A61203C2C2A7225F
:0A046A00C2A7D2A61203C2C2A72245
:100003007F381204607F0C1204607F061204607F45
:09001300011204607F8002046008
:030474000166001E
:10002600C2A31200037F647E0012045512043B1221
:100036000402EF24FE70030200CD14700302015186
:10004600240270EBE56670037566081566E566645E
:10005600077004F5658005E56604F5657F80120482
:1000660060E5662430FF12046A7F2012046AE4F514
:1000760067C3E567940A748094805014E56675F04A
:100086000AA424092567F8E6FF12046A056780E1D9
:100096007FC0120460E5652430FF12046A7F2012D7
:1000A600046AE4F567C3E567940A748094804003A4
:1000B600020035E56575F00AA424092567F8E6FF10
:1000C60012046A056780DE0566E56664087002F557
:1000D60066E56664077004F5658005E56604F56502
:1000E6007F80120460E5662430FF12046A7F2012C6
:1000F600046AE4F567C3E567940A74809480501433
:10010600E56675F00AA424092567F8E6FF12046A75
:10011600056780E17FC0120460E5652430FF1204A4
:100126006A7F2012046AE4F567C3E567940A74805F
:1001360094804003020035E56575F00AA42409257C
:1001460067F8E6FF12046A056780DE7F0112046025
:030156000200356F
:060477000159000108001C
:10043B00759850758920758780758DF3758BF3D200
:06044B00ACD2AFD28E22FC
:030023000201597E
:10015900C0E0C0F0C083C082C0D075D000C000C06C
:1001690001C002C003C004C005C006C0072098032F
:10017900020232C298745A2559F8A6990559E559C7
:10018900640A6003020232F559B2A37F507EC3129A
:100199000455B2A3E50875F00AA42409F9E4A801F5
:1001A900FCFDFB7A00795A1203197FC0120460E53D
:1001B900082430FF12046A7F2012046A756400C3A0
:1001C900E564940A748094805014E50875F00AA4D3
:1001D90024092564F8E6FF12046A056480E1D3E581
:1001E9000894007480948040347F80120460E5088C
:1001F900242FFF12046A7F2012046A756400C3E584
:1002090064940A748094805014E50875F00AA42453
:10021900FF2564F8E6FF12046A056480E1E50864D5
:10022900077004F50880020508D007D006D005D06C
:1002390004D003D002D001D000D0D0D082D083D056
:04024900F0D0E032DF
:03000000020336C2
:0C033600787FE4F6D8FD75816702037D36
:10024D00E709F60870FA8046E709F20870FA803E71
:10025D0088828C83E709F0A370FA807EE309F608A3
:10026D0070FA8076E309F20870FA806E88828C83CA
:10027D00E309F0A370FA806289828A83E0A3F6080D
:10028D0070FA805689828A83E0A3F20870FA804A58
:10029D0080D280FA80C680D4806580F28031801053
:1002AD0080A680EA809A80A880DA80E280CA8031B8
:1002BD0089828A83ECFAE493A3C8C582C8CCC5832E
:1002CD00CCF0A3C8C582C8CCC583CC70E9800D899C
:1002DD00828A83E493A3F60870F9ECFAA9F0EDFB9A
:1002ED002289828A83ECFAE0A3C8C582C8CCC58373
:1002FD00CCF0A3C8C582C8CCC583CC70EA80DD899B
:10030D00828A83E493A3F20870F980CE88F0ED24FD
:10031D0002B4040050C4F582EB2402B4040050BAB8
:09032D00232345822390029D73F5
:10034200020026E493A3F8E493A34003F68001F2AB
:1003520008DFF48029E493A3F85407240CC8C333BC
:10036200C4540F4420C8834004F456800146F6DF8B
:10037200E4800B0102040810204080900474E47EA3
:10038200019360BCA3FF543F30E509541FFEE49380
:10039200A360010ECF54C025E060A840B8E493A347
:1003A200FAE493A3F8E493A3C8C582C8CAC583CA72
:1003B200F0A3C8C582C8CAC583CADFE9DEE780BE2A
:01047D00007E
:00000001FF
